:1000000062C08BC17BC07AC079C078C077C076C02F
:1000100075C074C073C072C071C070C06FC06EC054
:100020006DC06CC06BC009021200010100C00A095A
:10003000040000000000000012011001FF00000891
:10004000C016DC050001010200011603540069001E
:100050006C00740044006500760069006300650070
:100060001A037700770077002E006F0062006400AB
:10007000650076002E00610074000403090400008E
:10008000020402050206020702080209020A020B24
:10009000020C020D020E020F0210021102120213D4
:1000A000021405010906A101050719E029E7150059
:1000B00025017501950881029501750825651900CE
:1000C00029658100C00011241FBECFE5D4E0DEBF4A
:1000D000CDBF10E0A0E6B0E0ECEBF5E002C005908B
:1000E0000D92A236B107D9F720E0A2E6B0E001C038
:1000F0001D92AF38B207E1F74BD25EC281CFCF93EA
:10010000DF9380917500835087FD8FC090917200BE
:10011000209171002D3209F086C0883009F083C02B
:10012000CCE0D0E0C91BD109C758DF4F83EC8093E6
:1001300065008AE580936100109262002881822F19
:10014000807619F0CE0102D265C08A8110926E00CD
:10015000998191110BC02F7119F481E080936E0089
:1001600010926F002EE630E082E050C0953019F416
:10017000809376003DC09630A9F59B81913019F4AB
:1001800088E390E004C0923041F486E290E09093DE
:1001900074008093730082E121C09330F1F48111E7
:1001A00008C08AE790E0909374008093730084E025
:1001B00015C0813041F480E690E090937400809304
:1001C00073008AE10BC0823041F48AE490E090939E
:1001D00074008093730086E101C080E090E4909306
:1001E000620018C0983079F0993031F4809378002B
:1001F0002EE630E080E00AC081E09A3009F080E02D
:100200002EE630E003C028E730E081E03093740050
:10021000209373009F81911104C09E81981708F468
:10022000892F80936000109275008091610084FF97
:1002300047C0809160008F3F09F442C0C82F8930C9
:1002400008F0C8E08C1B809360009091650088E8FE
:10025000892780936500CC2339F1809173009091B8
:1002600074002091620026FF0BC0A6E6B0E0FC01FE
:100270002C2F280F34913D9331962E13FBCF09C0BC
:10028000DC01E6E6F0E02C2F2E0F3D9131932E138A
:10029000FCCF2FEF2C0F30E02F5F3F4F820F931FCB
:1002A00090937400809373006C2F86E690E031D0B9
:1002B000CC5FCC3019F08FEF80936000C093610069
:1002C00084E190B3947131F48150D9F710927600A3
:1002D00010927000DF91CF91089585B7826085BF3D
:1002E0008BB780648BBF0895A82FB92F80E090E072
:1002F00041E050EA609530E009C02D918227979542
:10030000879510F084279527305EC8F36F5FA8F3B8
:100310000895EADF8D939D930895CF93CFB7CF9340
:10032000DF93C395849BE9F7849B0BC0849B09C032
:10033000849B07C0849B05C0849B03C0849B01C031
:1003400089C06F93C0917200DD27C758DF4F2F938C
:1003500065E5849B03C02F916F91E6CF0F931F93A8
:100360004F9320E040E15F9300B3047104FB27F951
:100370003F9350E03BE039C0147140642F77012F68
:100380005F5F1EC0406810B314712F7752501FC0BA
:10039000406400B32F770471D1F15F5F00C023C0C8
:1003A000406210B32F77147191F15F5F00C025C0D8
:1003B00004711027515012F45D5F00001150279511
:1003C0002C3F10B3C8F614710127015027952C3F1C
:1003D000C8F64227499300B3047110274F73115098
:1003E00027952C3FA8F64695469510B3147179F0E1
:1003F0000127015027952C3F98F66B5A60F3315036
:1004000000B3B0F600C010E41ABF002717C03B507D
:100410003195C31BD04010E41ABF0881033CF9F0AA
:100420000B34E9F0209170001981110F1213EDCFF8
:10043000093651F10D3211F0013E39F70093770082
:100440003F915F914F911F910F912F916F91CAB77B
:10045000C6FD67CFDF91CF91CFBFCF911895209187
:100460007700222369F310917500112339F5343098
:100470003AF13093750020937100109172003BE0C7
:10048000311B309372001CC0009175000130B4F430
:100490000AE53091610034FD14C000936100C5E6A7
:1004A000D0E013C0052710E000C0000002BB1AC056
:1004B000052710E0221F1DC010E021C04AE502C040
:1004C00032ED432FC4E1D0E032E011B31461949ACD
:1004D00002B311BB54E120E865E320FF052702BB0E
:1004E000279517951C3FF0F66695B8F7B1F720FFF2
:1004F000052702BB279517951C3FD0F62795179522
:1005000017FF052700001C3F02BBB0F629913A9562
:1005100019F70B7E10917600110FC651D04002BB27
:1005200011F01093700010E41ABF006111B31B7E2C
:10053000402F4B7E54E05A95F1F702BB11BB42BBF2
:100540007FCF8EEF87BB81E088BB0895DC0183E617
:1005500090E090937400809373009C919076903219
:10056000A9F411968C91811111C086B38095E82F62
:10057000E170F0E0EE0FFF1FE258FF4F859194917C
:10058000909364008093630082E0089580E0089572
:10059000D8DFA3DE7894C1E0B2DDE6B3E170EC27EA
:1005A000F0E0EE0FFF1FE258FF4F8591949190937A
:0C05B000640080936300F0CFF894FFCF4C
:0205BC00FF5AE4
:00000001FF
